:100000000C947A000C94A2000C94A2000C94A115FC
:100010000C94A2000C94FB000C94A2000C94F42409
:100020000C94A2000C9401040C94A2000C94A20065
:100030000C94A2000C94A2000C94A2000C94A200B8
:100040000C94A0200C94A2000C947C220C94CA2244
:100050000C94A2000C94A2000C94A2000C94A20098
:100060000C94511A0C94A2004F068507E307F6077B
:100070000C081D0849087C08C308E008910AC80A52
:10008000E60A060B260B460B660B920BC70BF40B0E
:1000900000000000240027002A00000000002500C6
:1000A00028002B0000000000230026002900040483
:1000B0000404040404040202020202020303030310
:1000C00003030102040810204080010204081020EC
:1000D00001020408102000000007000201000003D4
:1000E0000406000000000000000002000302B01639
:1000F000ED182D2411241FBECFEFD8E0DEBFCDBFF9
:1001000011E0A0E0B1E0E4E1F0E502C005900D925D
:10011000A036B107D9F714E0A0E6B1E001C01D9206
:10012000AD33B107E1F710E0C4EFD0E004C022978F
:10013000FE010E940428CC3ED107C9F70E94832407
:100140000C9408280C94000040E651E00E94C9007D
:100150000895FC018191861721F08823D9F799270A
:1001600008953197CF010895FB01DC0101900D92B4
:100170000020E1F70895FB01DC014150504030F0D0
:100180008D910190801919F40020B9F7881B990B03
:100190000895009731F4DA018D919C91009709F44C
:1001A0000EC0DC01FB013D912191222319F0321791
:1001B000C9F3FACF332331F4DA011D921C92882758
:1001C000992708951197AF93BF93FB013D9121911A
:1001D000321771F4332321F488279927119702C02D
:1001E0001E921196FA01A193B0839F918F91089569
:1001F000222369F7EACF1F920F920FB60F921124B4
:100200002F933F938F939F93EF93FF93E0918101FF
:10021000F0918201208130E08091830190E02823D9
:100220003923232BB1F491E090938F0180919101B8
:10023000813051F48FEF8093910188EE93E0909399
:1002400011018093100102C090939101109212014C
:100250000DC08091960190919701892B39F480917E
:10026000860186FD03C081E0809312018091920196
:10027000882391F5E0917D01F0917E01208130E0AD
:1002800080917F0190E028233923232B29F581E0F9
:100290008093920180918B0190918C01892B81F444
:1002A00081E090E090938C0180938B0186E98093AC
:1002B000930106C081E08093920102C010929201E6
:1002C000809194018F5F80939401809194018A3092
:1002D00089F4109294010EC0E0917D01F0917E01AD
:1002E000208130E080917F0190E028233923232B67
:1002F00009F3E4CFFF91EF919F918F913F912F915F
:100300000F900FBE0F901F901895262F6F3F09F486
:100310002AE0882381F4822F6AE00E94912790933B
:100320007901822F6AE00E9491276AE00E9491275A
:1003300090937A010895813081F4822F6AE00E94BF
:10034000912790937701822F6AE00E9491276AE0BB
:100350000E949127909378010895823079F4822F3A
:100360006AE00E94912790937501822F6AE00E94B3
:1003700091276AE00E94912790937601089508954D
:100380006093190170931A0180931B0190931C01D3
:1003900008958091190190911A01A0911B01B091CB
:1003A0001C012091190130911A0140911B015091BB
:1003B0001C01217030704070507050954095309500
:1003C00021953F4F4F4F5F4F217030704070507DEF
:1003D000B695A79597958795282739274A275B27AC
:1003E0002093190130931A0140931B0150931C0173
:1003F0002091190130911A0140911B0150911C016B
:10040000B901CA01089582E691E00E94121C089584
:1004100089E062E370E00E94882165E070E080E09E
:1004200090E00E94F42089E060E070E00E94882162
:10043000089589EA92E00E948F1610929501109219
:10044000940189E090E090938C0180938B010E944D
:100450003C0C08951F9382E691E00E941E1E90932B
:10046000850180938401892B59F482E691E00E94F2
:100470001E1E9093850180938401892B09F4D0C0BE
:1004800080919C01882309F4C0C0E0918401F0911F
:10049000850184819581823091050CF4B6C007975F
:1004A0000CF0B3C08AE080937A0180917A01809346
:1004B000790180917901809378018091780180930E
:1004C0007701809177018093760180917601809306
:1004D000750180E060E00E94F80FA2C0E091840105
:1004E000F0918501808191811816190654F082815E
:1004F000938165E070E00E94B227892B11F40E947D
:10050000190280911401882399F080918D0188232C
:1005100071F480911401813041F0E0918401F091F7
:100520008501808180FD03C081E061E002C080E040
:1005300060E00E94F80FE0918401F09185018685CA
:1005400080938E0180911301882311F0248101C0D2
:10055000278580918D018823F1F4809115018823EE
:1005600009F059C02A3008F056C08AE080937A0119
:1005700020937901E0918401F091850181E062810D
:100580000E948501E0918401F091850182E0608103
:100590000E94850145C080911801843091F41AE0D1
:1005A00010937601809176018093750181E06081DE
:1005B0000E94850110937A0180917A0180937901DC
:1005C0002FC080911801863059F53AE030937A01B6
:1005D000822F6AE00E94852790937801822F0E94E3
:1005E00085270E948527909379012281822F0E947E
:1005F000852790937601822F0E9485270E94852768
:1006000090937701309375010BC080911701882377
:1006100009F477CF63CF80E0622F0E948501AACFD3
:100620001F910895E0EBF0E080818C7F8083A1EB47
:10063000B0E08C91877F8C93E6EBF0E080818F7D3A
:100640008083E0E7F0E080818D7F808382E08C937F
:100650008081816080831092B200E8E6F0E08081C2
:1006600084608083EDE6F0E080818860808389EAA1
:1006700092E00E94981610928C0110928B010895BE
:1006800080918B0190918C018830910544F48330E6
:100690009105FCF4009749F099239CF408958A3061
:1006A00091057CF04497A4F514C08091860187FFE2
:1006B0002FC08F77809386010E94460C0E9408020B
:1006C00008958091860187FF23C08F7780938601EC
:1006D00008958091860187FF0EC089EA92E00E940A
:1006E0006B16809186018F778093860180918701B8
:1006F0008E7F809387018091870180FF09C089EAFE
:1007000092E00E946B16809187018E7F8093870113
:100710000895AAE7B1E08AE080937A0180917A0196
:10072000FD0182938081FD01329780838081FD01EC
:10073000339780838081FD01349780838081159772
:100740008C9389E068EB71E024EF31E040E050E009
:100750000E94502564E670E080E090E00E94F42062
:1007600089E063E870E02EEE32E040E050E00E9465
:10077000502564E670E080E090E00E94F42089E07B
:1007800068EB71E024EF31E040E050E00E9450253A
:1007900064EF71E080E090E00E94F4200895AAE701
:1007A000B1E08AE080937A0180917A01FD01829321
:1007B0008081FD01329780838081FD0133978083A2
:1007C0008081FD0134978083808115978C938AE026
:1007D0006AE00E94CD0E80E060E00E94F80F109267
:1007E0007000E8E6F0E080818B7F808389EA92E008
:1007F0000E948F1682E090E090938C0180938B0191
:1008000008951F920F920FB60F9211242F933F93CA
:100810004F935F936F937F938F939F93AF93BF9308
:10082000EF93FF9380919D018F5F80939D01815095
:10083000823021F40E945F0F10929D0180919E01F1
:1008400090919F01019690939F0180939E0186391C
:10085000910531F40E94A40C10929F0110929E0108
:100860008091A0018F5F8093A001843021F40E94C9
:1008700003111092A001FF91EF91BF91AF919F9151
:100880008F917F916F915F914F913F912F910F9039
:100890000FBE0F901F9018950F931F9304EB12E05B
:1008A000C80160E070E042E40E949D18409113018D
:1008B000C80161E070E00E949D1840911401C801D8
:1008C00062E070E00E949D1840911501C80163E04C
:1008D00070E00E949D1840911601C80164E070E02C
:1008E0000E949D1840919C01C80165E070E00E9443
:1008F0009D1840911701C80166E070E00E949D18A4
:1009000040919801C80167E070E00E949D184091F5
:100910009901C80168E070E00E949D1840919A0119
:10092000C80169E070E00E949D1840919B01C801D8
:100930006AE070E00E949D181F910F9108950F9337
:100940001F9380E060E00E94A00F10928D0181E073
:1009500080938F0109EA12E0C80164E00E943A1610
:10096000C8010E94981610928C0110928B01809100
:1009700086018D7F809386010E944C041F910F9108
:10098000089584EB92E060E070E00E949618823453
:1009900009F05DC084EB92E061E070E00E9496187F
:1009A000811181E08093130184EB92E062E070E0BA
:1009B0000E9496188093140184EB92E063E070E04B
:1009C0000E949618811181E08093150184EB92E0DA
:1009D00064E070E00E949618811181E08093160116
:1009E00084EB92E065E070E00E949618811181E04E
:1009F00080939C0184EB92E066E070E00E94961880
:100A0000811181E08093170184EB92E067E070E050
:100A10000E949618811181E08093980184EB92E006
:100A200068E070E00E9496188093990184EB92E050
:100A300069E070E00E94961880939A0184EB92E03E
:100A40006AE070E00E94961880939B0108950E94CE
:100A50004C0408950E94B80E0E94021083E060E0EA
:100A60000E94E82183E061E00E94272283E08093D6
:100A70008001E1EBF0E0E491F0E0EE0FFF1FEC55B8
:100A8000FF4F859194919093820180938101E5ECD1
:100A9000F0E0E491E093830189E061E00E94E821C5
:100AA00089E060E00E9427220E94C1048091160123
:100AB000882361F189E068EB71E024EF31E040E0E8
:100AC00050E00E94502564E670E080E090E00E94D3
:100AD000F42089E063E870E02EEE32E040E050E080
:100AE0000E94502564E670E080E090E00E94F420CF
:100AF00089E068EB71E024EF31E040E050E00E94D3
:100B0000502564EF71E080E090E004C068EE73E08F
:100B100080E090E00E94F4208091B0008C7F809370
:100B2000B0008091B100877F8093B1008091700008
:100B30008D7F8093700082E08093B100809170007F
:100B40008160809370001092B20080916800846090
:100B50008093680080916D00886080936D008DE0C7
:100B60006FEF0E94250E89EA92E00E94191689EA29
:100B700092E060E04BE00E943D1678948BEF92E0AB
:100B80000E948D190E94960C82E691E00E946820D6
:100B900082E691E060E070E00E94421C82E691E013
:100BA00061E00E94BD1C0E942A0281E080937B01CB
:100BB00080919801811180E30E94671186E094E0A2
:100BC00040E855E260E070E00E94052308952F920E
:100BD0003F924F925F926F927F928F929F92AF92CD
:100BE000BF92CF92DF92EF92FF920F931F93CF931A
:100BF000DF930E942A0582E691E061E00E944D2089
:100C0000C4EFD1E003E110E042E1E42EF12C31E148
:100C1000C32ED12C20E1A22EB12C9FE0892E912C45
:100C20008EE0682E712CBDE04B2E512CACE02A2EAC
:100C3000312C80919801882379F080918B019091DB
:100C40008C01892B49F40E945D11882329F00E94B0
:100C500060110E94C41103C0CE010197F1F7809189
:100C6000A1018F5F8093A10181508F3011F7109205
:100C7000A10186E891E00E94140D0E944003E091DA
:100C80008B01F0918C01E431F10508F0C6C5EC5CF4
:100C9000FF4FEE0FFF1F0590F491E02D0994809116
:100CA0008F01882321F00E942A0210928F018091E7
:100CB0009001882341F089EA92E00E94A5160E94E3
:100CC000370C10929001809186012091A201309101
:100CD000A30180FF52C0C90101969093A3018093A4
:100CE000A2018639910524F480E061E00E94A00F02
:100CF0008091A2019091A3018639910511F481E0C0
:100D000005C021E08C32920729F482E060E00E9465
:100D1000A00FE4C021E0823C920711F483E0F6CFFB
:100D20008052934009F0DAC080E061E00E94A00F99
:100D30001092A3011092A20189E066E970E00E947E
:100D4000882168EC70E080E090E00E94F42089E067
:100D500060E070E00E94882189EA92E00E948F168C
:100D6000109295011092940188E090E090938C018C
:100D700080938B010E943C0CB1C091E0223C39076A
:100D800024F189EA92E00E948F1689EA92E06AE0F3
:100D90000E943A1689EA92E060E041E00E943D1626
:100DA0006091130189EA92E00E944A1680E060E0B7
:100DB0000E94F80F109295018AE090E090938C01C8
:100DC00080938B010E943C0C85C091E02C32390746
:100DD000D4F182E691E00E941E1EFC0190938501F1
:100DE000809384018481809388018281809389012A
:100DF00010928A0189EA92E00E948F1689EA92E0B5
:100E000060E047E10E943D1689EA92E06091880126
:100E10000E944A1680E0609188010E94850181E06D
:100E2000609189010E94850182E060918A010E949F
:100E3000850180E060E00E94F80F81E080939501D9
:100E400085E090E03CC0263931050CF43FC082E6D5
:100E500091E00E94D91FFC01909385018093840149
:100E600084818093880182818093890110928A0114
:100E700089EA92E00E948F1689EA92E060E047E1F9
:100E80000E943D1689EA92E0609188010E944A160C
:100E900080E0609188010E94850181E06091890174
:100EA0000E94850182E060E00E94850180E060E0B0
:100EB0000E94F80F81E08093950183E090E0909389
:100EC0008C0180938B010E94800C04C080E060E064
:100ED0000E94A00F1092A3011092A201809186019E
:100EE00081FF9BC490E080918D01882309F491E0FB
:100EF00090938D01809186018D7F8093860181E0A2
:100F000080938F010E94080288C482E691E00E94CB
:100F1000D91F909385018093840180E060E00E9456
:100F2000F80FE0918401F09185013097E9F180910B
:100F300018018430A9F480E064810E948501E09169
:100F40008401F091850181E062810E948501E09138
:100F50008401F091850182E060810E94850124C0B6
:100F600080911801863001F53AE030937A012481AE
:100F7000822F6AE00E94852790937801822F0E9439
:100F800085270E948527909379012281822F0E94D4
:100F9000852790937601822F0E9485270E948527BE
:100FA00090937701309375018091930181508093E4
:100FB000930180919301882309F02FC410928C0132
:100FC00010928B012AC4E0917D01F0917E01208175
:100FD00030E080917F0190E028233923232B19F002
:100FE0000E9412031AC40E94890317C480918601CB
:100FF00081FF44C082E08093950189EA92E060E03D
:101000004BE30E943D1689EA92E0609189010E94BB
:101010004A1684E090E026C08091860181FF60C07E
:101020001092950182E691E06091880140918901DA
:1010300020918A010E9402206FC08091860181FF69
:101040001DC082E08093950189EA92E060E04BE365
:101050000E943D1689EA92E0609189010E944A1639
:1010600086E090E090938C0180938B0180918601C3
:101070008D7F809386010E946A0CCFC389EA92E03B
:101080000E94A51668E10E9485279093880180E060
:1010900031C08091860181FF23C080911801863084
:1010A00011F483E001C082E08093950189EA92E027
:1010B00060E04BE30E943D1689EA92E060918A016C
:1010C0000E944A1687E090E090938C0180938B01F8
:1010D000809186018D7F809386010E94540C9DC370
:1010E00089EA92E00E94A5166CE30E9485279093FE
:1010F000890181E0692F8FC38091860181FF25C01E
:101100001092950182E691E06091880140918901F9
:1011100020918A010E945B1D80E060E00E94A00F88
:1011200010928D0181E080938F018093900189EA74
:1011300092E00E94981610928C0110928B0180917F
:1011400086018D7F8093860168C389EA92E00E94C0
:10115000A5166CE30E948527692F90938A018091E0
:101160001801863011F482E056C38AE0809376013C
:10117000909176019093750180937A0180917A0124
:101180008093790147C38091940180937A01809183
:101190007A0180937901809179018093780180911F
:1011A0007801809377018091770180937601809117
:1011B0007601809375018091860181FF2EC3ACCFAB
:1011C00080E060E00E94F80F8091A4019091A50159
:1011D00083709070009709F0BEC020911901309182
:1011E0001A0140911B0150911C01809119019091AD
:1011F0001A01A0911B01B0911C0181709070A07028
:10120000B070B095A095909581959F4FAF4FBF4F0F
:1012100081709070A070B07D569547953795279551
:1012200082279327A427B5278093190190931A0149
:10123000A0931B01B0931C016091190170911A01D8
:1012400080911B0190911C012AE030E040E050E0C9
:101250000E94C527609375012091190130911A01F0
:1012600040911B0150911C018091190190911A012C
:10127000A0911B01B0911C0181709070A070B070A2
:10128000B095A095909581959F4FAF4FBF4F8170BE
:101290009070A070B07D5695479537952795822719
:1012A0009327A427B5278093190190931A01A0933F
:1012B0001B01B0931C016091190170911A0180917A
:1012C0001B0190911C012AE030E040E050E00E94B8
:1012D000C527609377012091190130911A0140913F
:1012E0001B0150911C018091190190911A01A0914C
:1012F0001B01B0911C0181709070A070B070B0950E
:10130000A095909581959F4FAF4FBF4F8170907082
:10131000A070B07D569547953795279582279327DE
:10132000A427B5278093190190931A01A0931B015C
:10133000B0931C016091190170911A0180911B01F9
:1013400090911C012AE030E040E050E00E94C52767
:1013500060937901C0C0019709F0BDC020911901C7
:1013600030911A0140911B0150911C01809119018B
:1013700090911A01A0911B01B0911C018170907095
:10138000A070B070B095A095909581959F4FAF4F8C
:10139000BF4F81709070A070B07D5695479537957E
:1013A000279582279327A427B52780931901909327
:1013B0001A01A0931B01B0931C0160911901709157
:1013C0001A0180911B0190911C012AE030E040E05D
:1013D00050E00E94C5276093760120911901309159
:1013E0001A0140911B0150911C01809119019091AB
:1013F0001A01A0911B01B0911C0181709070A07026
:10140000B070B095A095909581959F4FAF4FBF4F0D
:1014100081709070A070B07D56954795379527954F
:1014200082279327A427B5278093190190931A0147
:10143000A0931B01B0931C016091190170911A01D6
:1014400080911B0190911C012AE030E040E050E0C7
:101450000E94C527609378012091190130911A01EB
:1014600040911B0150911C018091190190911A012A
:10147000A0911B01B0911C0181709070A070B070A0
:10148000B095A095909581959F4FAF4FBF4F8170BC
:101490009070A070B07D5695479537952795822717
:1014A0009327A427B5278093190190931A01A0933D
:1014B0001B01B0931C016091190170911A01809178
:1014C0001B0190911C012AE030E040E050E00E94B6
:1014D000C52760937A018091A4019091A50101969E
:1014E0009093A5018093A40101978F5F914009F02B
:1014F00094C180E060E00E94A00F10928D0181E015
:1015000080938F018093900189EA92E00E9498165F
:1015100010928C0110928B011092A5011092A401DF
:101520007CC18091860181FF1BC089EA92E00E9404
:10153000A516811181E08093130189EA92E060E0B1
:1015400042E00E943D166091140189EA92E00E94F7
:101550004A168BE090E090938C0180938B015DC1E3
:1015600080E061E00E94850189EA92E00E94A51670
:1015700080FF02C068E101C06CE081E00E9485014B
:101580008AE080937601809176018093750145C150
:101590008091860181FF17C089EA92E00E94A5161A
:1015A0008093140189EA92E060E041E00E943D16D8
:1015B0006091150189EA92E00E944A1630928C01EE
:1015C00020928B012AC180E062E01DC180918601DA
:1015D00081FF19C089EA92E00E94A516811181E07D
:1015E0008093150189EA92E060E041E00E943D1697
:1015F0006091160189EA92E00E944A1650928C018D
:1016000040928B010AC180E063E0FDC080918601B9
:1016100081FF19C089EA92E00E94A516811181E03C
:101620008093160189EA92E060E041E00E943D1655
:1016300060919C0189EA92E00E944A1670928C01A6
:1016400060928B01EAC080E064E0DDC08091860199
:1016500081FF19C089EA92E00E94A516811181E0FC
:1016600080939C0189EA92E060E041E00E943D168F
:101670006091170189EA92E00E944A1690928C01CB
:1016800080928B01CAC080E065E0BDC08091860178
:1016900081FF19C089EA92E00E94A516811181E0BC
:1016A0008093170189EA92E060E041E00E943D16D4
:1016B0006091980189EA92E00E944A16B0928C01EA
:1016C000A0928B01AAC080E066E09DC08091860157
:1016D00081FF25C089EA92E00E94A516811181E070
:1016E0008093980180919801811180E30E94671195
:1016F00089EA92E064E00E943A1689EA92E060E0AA
:101700004BE10E943D1660919901635F89EA92E086
:101710000E944A16D0928C01C0928B017EC080E05C
:1017200067E071C08091860181FF18C089EA92E06C
:101730000E94A5168D508093990189EA92E060E09D
:1017400043E00E943D1660919A0189EA92E00E946E
:101750004A16F0928C01E0928B015FC089EA92E018
:101760000E94A516682F6D5067FF07C0619581E044
:101770000E94850181E061E005C081E00E94850151
:1017800080E060E00E94F80F80E068E044C0809153
:10179000860181FF1CC089EA92E00E94A516809311
:1017A0009A0189EA92E06AE00E943A1689EA92E098
:1017B00060E041E00E943D1660919B0189EA92E061
:1017C0000E944A1610938C0100938B0126C080E082
:1017D00069E00E94850189EA92E00E94A5169FE0D7
:1017E000899FB001112416C08091860181FF09C034
:1017F00089EA92E00E94A51680939B010E949F04B3
:101800000CC080E06AE00E94850189EA92E00E94B3
:10181000A516682F81E00E9485010E94340C8091FA
:101820008B0190918C01009711F0099761F48091E0
:101830009201882341F082E691E00E94201F8823D4
:1018400011F00E94CF038091960190919701892B0E
:1018500009F4EFC9809196019091970101979093B7
:10186000970180939601E5C90E94E1140895809341
:10187000A6010E944E1508951F931091A60180E0C5
:101880000E94370C1093A6011F9108958091A60124
:101890008F5F8093A6018B3011F41092A601809186
:1018A000A6010E94370C089580E00E944E1582E048
:1018B00060E070E044EF51E028EE33E00E941B143A
:1018C00083E060E070E044EF51E028EE33E00E94F6
:1018D0001B14089580E00E944E1582E068EE73E0CC
:1018E00048EE53E028EE33E00E941B1483E068EEDC
:1018F00073E048EE53E028EE33E00E941B14089595
:1019000080E00E944E1580E068EE73E048EE53E000
:1019100028EE33E00E941B1481E068EE73E048EE8D
:1019200053E028EE33E00E941B1408951F930E9499
:10193000861510E0812F60E070E00E94D7131F5FD2
:101940001031C1F71F9108950F931F93CF93DF9329
:1019500040911D014230A1F4E091A801F091A9014C
:101960009081E091AC01F091AD01E081E095809132
:10197000AE01E82390958091AA019823E92B09C034
:10198000E091A801F091A901E081E0958091AA0180
:10199000E8233091AF01232F20952E238091B001B1
:1019A000282B2093B0019E2F909593238091B10115
:1019B000982B9093B101E093AF010091B201A7EB96
:1019C000B1E0E3EBF1E0642F70E06A0F7B1F30E0E1
:1019D00020953095C92FD0E01DC01C91412F50E0BB
:1019E000C90184239523892B99F44C235D23452B2E
:1019F00019F0118210820CC080819181059718F036
:101A0000012B1182108280819181019691838083C4
:101A100011963296A617B70701F70093B201DF912E
:101A2000CF911F910F910895EF92FF920F931F9303
:101A3000FC011091B00140E08091AA0190E0212FBB
:101A400030E082239323892B09F041E080818E7F4F
:101A5000842B80833091B101A32FB0E020E08091EE
:101A6000AA0190E08A239B23892B09F021E0220F11
:101A700080818D7F822B80830091B201402F50E0C6
:101A800020E08091AA0190E084239523892B09F01E
:101A900021E0220F220F80818B7F822B8083209177
:101AA000AA01622F70E046235723452B29F0822F8D
:101AB000809580238093B201A623B723AB2B89F0B6
:101AC000922F909519231093B00139233093B101CF
:101AD0008091B20189238093B2011092B4011092D7
:101AE000B30180911D01F090B001823009F089C0EE
:101AF00040E08091AE0190E02F2D30E082239323CF
:101B0000892B09F041E0440F440F440F8081877F07
:101B1000842B80831091B101612F70E020E08091CF
:101B2000AE0190E086239723892B09F021E02295CE
:101B3000207F80818F7E822B8083A091B2012A2F0B
:101B400030E040E08091AE0190E082239323892B26
:101B500009F041E04295440F407E80818F7D842BC7
:101B60008083E090AA014E2D50E024233523232BBF
:101B700029F08E2D80958A238093B2010091AE01C9
:101B8000A02FB0E06A237B23672B89F0902F9095DC
:101B9000F922F092B00119231093B1018091B201A2
:101BA00089238093B2011092B4011092B301809105
:101BB000B00190E048235923452B11F420E006C0E2
:101BC00020E08A239B23892B09F021E0220F8181C9
:101BD0008D7F822B81838091AF01282F30E020956B
:101BE00030958E2D90E082239323892B11F440E0D1
:101BF00021C040E0802F90E028233923232BD1F00F
:101C000018C040E08F2D90E086239723892B09F0A0
:101C100041E0440F81818D7F842B818340E080915E
:101C2000AF0190E08095909530E082239323892B3B
:101C300009F041E0440F440F81818B7F842B818325
:101C40001F910F91FF90EF9008950F931F93182FFE
:101C5000062F60E00E94E821812F61E00E94272288
:101C60001093A701212F332727FD3095F901E25565
:101C7000FF4FE491F0E0EE0FFF1FEC55FF4F859111
:101C800094919093A9018093A8012E533F4FF9019D
:101C900084918093AA010F3F31F1802F60E00E9470
:101CA000E821802F61E00E9427220093AB01202FC2
:101CB000332727FD3095F901E255FF4FE491F0E01D
:101CC000EE0FFF1FEC55FF4F859194919093AD015E
:101CD0008093AC012E533F4FF90164916093AE01A4
:101CE00082E080931D018091AA018093B7018091C9
:101CF000AE018093B8011F910F91089527E030E065
:101D0000482F50E0CA01022E02C0959587950A948B
:101D1000E2F780FF09C0E091C201F091C301808128
:101D20009091C401892B09C0E091C201F091C301D7
:101D300090818091C401809589238083E091C601C0
:101D4000F091C70180819091C801892B8083E09137
:101D5000C601F091C70190818091C80180958923C7
:101D60008083215030408FEF2F3F380759F6089578
:101D7000E091BA01F091BB0190818091BC01809506
:101D800089238083E091BE01F091BF019081809111
:101D9000C0018095892380830895EF92FF920F936D
:101DA0001F93282F6A3021F4EE24FF2487010CC0F2
:101DB00081E090E002C0880F991F6A95E2F77C01EC
:101DC0000027F7FC0095102F2A3029F420E030E09E
:101DD00040E050E00CC081E090E002C0880F991F05
:101DE0002A95E2F79C01442737FD4095542F6AE07D
:101DF000EE0CFF1C001F111F6A95D1F7E22AF32A8F
:101E0000042B152BE094F09400951095C801AA2797
:101E1000BB270E947E0EBB27A12F902F8F2D0E94E3
:101E20007E0E8E2D0E947E0EE091CA01F091CB01B4
:101E300080819091CC01892B8083E091CA01F0913F
:101E4000CB0190818091CC018095892380831F9163
:101E50000F91FF90EF9008951F93182F809112011A
:101E6000882389F080919501843011F46AE00AC0DA
:101E700080919501813011F46AE005C0809195014F
:101E8000823009F44AE0862F642F0E94CD0E112380
:101E900019F0113091F408C0E091BA01F091BB0142
:101EA00080819091BC0107C0E091BE01F091BF011B
:101EB00080819091C001892B80831F91089590911A
:101EC000D1019923F9F0892F81508A3050F4809103
:101ED0007B018823B9F060917A014091780180E01C
:101EE0000EC09B3079F09C509A3000F580917B01B8
:101EF000882341F0609179014091770181E00E944F
:101F00002C0F14C0E091BA01F091BB019081809137
:101F1000BC01809589238083E091BE01F091BF01CF
:101F200090818091C0018095892380838091D10127
:101F30008F5F8093D101863111F41092D101089501
:101F4000813009F44FC0813038F0823009F445C047
:101F5000833009F04CC03CC080918B0190918C0182
:101F6000892B31F5662321F580911301882321F017
:101F70008DE060E070E00AC080918E01882319F442
:101F800064E670E002C060E070E08DE00E94D7136C
:101F90008EE060E070E00E94D71380919201882368
:101FA00019F460E070E002C064E670E08FE00DC0FC
:101FB0008DE060E070E00E94D7138EE060E070E09A
:101FC0000E94D7138FE060E070E00E94D71308955D
:101FD0008DE068EB7BE00E94D7138EE068EB7BE03E
:101FE0000E94D7138FE068EB7BE00E94D71308951F
:101FF000882319F088E060E002C088E061E00E9478
:10200000272208950F931F93CF93DF938AE060E018
:102010000E94E8218AE061E00E9427228AE0809302
:102020007C01E8EBF0E0E491F0E0EE0FFF1FEC55EF
:10203000FF4FA591B491B0937E01A0937D01ECEC8C
:10204000F0E0E491E0937F018C9190E02E2F30E05E
:1020500082239323892B21F481E08093920102C093
:102060001092920182E061E00E94E82184E061E048
:102070000E94E82182E08093B901C0EBD0E0FE012C
:102080008491E82FF0E0EE0FFF1FE656FF4F859199
:1020900094919093BB018093BA0104EC10E0F80195
:1020A00084918093BC0184E08093BD012296FE015F
:1020B0008491E82FF0E0EE0FFF1FE656FF4F859169
:1020C00094919093BF018093BE010E5F1F4FF80162
:1020D00084918093C00188E061E00E94E8218EE055
:1020E00061E00E94E8218FE061E00E94E82180E148
:1020F00061E00E94E8218BE061E00E94E8212EE08F
:102100002093C1012A96FE018491E82FF0E0EE0FA2
:10211000FF1FE656FF4F859194919093C3018093E2
:10212000C201065F1F4FF80184918093C401209380
:10213000C5012196FE018491E82FF0E0EE0FFF1F0C
:10214000E656FF4F859194919093C7018093C60105
:102150000F5F1F4FF80184918093C80180E1809345
:10216000C9012196FE018491E82FF0E0EE0FFF1FD8
:10217000E656FF4F859194919093CB018093CA01CD
:102180000F5F1F4FF80184918093CC018BE0809307
:10219000CD012597FE018491E82FF0E0EE0FFF1F9F
:1021A000E656FF4F859194919093CF018093CE0195
:1021B00005501040F80184918093D0018BE060E0DD
:1021C0000E9427228FEF0E947E0E8BEF0E947E0ED0
:1021D0008EEF0E947E0EE091CA01F091CB018081CA
:1021E0009091CC01892B8083E091CA01F091CB01C1
:1021F00090818091CC01809589238083DF91CF915C
:102200001F910F91089580919801882309F454C07B
:102210008091C00087FF50C04091C600443261F4F5
:1022200080919602E0919702F0919802E80FF11DDB
:102230001082109296022DC04A3059F58091960274
:10224000E0919702F0919802E80FF11D10828091C1
:1022500097029091980226E332E051E0863D95077F
:1022600049F4309398022093970290939A028093B6
:1022700099020AC086ED91E09093980280939702AC
:1022800030939A02209399021092960281E08093F3
:102290009B0280919602E0919702F0919802E80FDC
:1022A000F11D40838F5F8093960280919602803665
:1022B00018F08FE580939602089580919B0208950F
:1022C00010929B028091990290919A020895803316
:1022D00019F0803691F403C087E690E002C084E3F1
:1022E00090E09093C5008093C40088E18093C10082
:1022F0008EE08093C200519A50981092D2011092B1
:10230000D3011092D4011092D50110929B02109229
:10231000960286ED91E0909398028093970286E36F
:1023200092E090939A028093990208950F931F93DD
:1023300002E211E0682F772767FD7095C8010E94BF
:10234000A900801B1F910F910895DF93CF93CDB704
:10235000DEB727970FB6F894DEBF0FBECDBFAE0134
:102360004F5F5F4F0E94BD1682E691E06B814A810C
:1023700029810E945B1D27960FB6F894DEBF0FBE21
:10238000CDBFCF91DF9108956F927F928F929F92F0
:10239000AF92BF92CF92DF92EF92FF920F931F9373
:1023A000DF93CF93CDB7DEB727970FB6F894DEBF94
:1023B0000FBECDBF3C0160E071E047E050E00E94FD
:1023C000BB00009709F0DEC173010894E11CF11C09
:1023D00000E0C3018F599F4F08C00894E11CF11C15
:1023E000E816F90609F4BEC10227F70120812A3256
:1023F000A1F781810E949611182FF70182810E9416
:1024000096111295107F180F011709F0A5C1C3018D
:1024100068E071E00E94A400892B09F4A3C180E068
:1024200090E068E071E00E94A4006C01009709F45C
:1024300099C1DC010D900020E9F71197A81BB90B99
:10244000A630B10508F48EC11B9708F08BC1EE24AD
:10245000FF2487011EC08B2D80538A30F0F4C80101
:10246000B7012AE030E040E050E00E9466277B019F
:102470008C018B2D992787FD9095C097AA2797FDF2
:10248000A095BA2FE80EF91E0A1F1B1F0894C11C45
:10249000D11CF601B080BB20F1F6C801B70120E1E4
:1024A00037E240E050E00E94C5272B83C801B70106
:1024B00024E630E040E050E00E94C527CA01B9019F
:1024C00024E630E040E050E00E94C5276A83C8015E
:1024D000B70124E630E040E050E00E94C527698360
:1024E00080E090E068E071E00E94A400FC010097A9
:1024F00009F438C18081813409F044C11092A202EC
:102500001092A10280E090E068E071E00E94A400D7
:10251000892B09F427C180E090E068E071E00E9417
:10252000A400892B09F41EC180E090E068E071E00E
:102530000E94A400892B09F415C180E090E068E0B6
:1025400071E00E94A400892B09F40CC180E090E0A6
:1025500068E071E00E94A400892B09F403C180E0C7
:1025600090E068E071E00E94A400892B09F4FAC0B1
:1025700080E090E068E071E00E94A4006C010097A8
:1025800009F4F0C0FC0101900020E9F73797E81743
:10259000F90709F0E7C0EE24FF2487011EC08B2D48
:1025A00080538A30F0F4C801B7012AE030E040E0FF
:1025B00050E00E9466277B018C018B2D992787FDB7
:1025C0009095C097AA2797FDA095BA2FE80EF91EFF
:1025D0000A1F1B1F0894C11CD11CF601B080BB2030
:1025E000F1F6C801B70120E137E240E050E00E9477
:1025F000C5272C83C801B70124E630E040E050E055
:102600000E94C527CA01B90124E630E040E050E04D
:102610000E94C5276D83C801B70124E630E040E081
:1026200050E00E94C5276E8380E090E06CE071E08E
:102630000E94A400892B09F495C080E090E068E036
:1026400071E00E94A400892B09F48CC08E81825E07
:102650008E83CE0101960E94BF174B015C01209131
:10266000D2013091D3014091D4015091D50121156F
:1026700031054105510589F06217730784079507F5
:1026800061F0DC01CB01821B930BA40BB50B8158CD
:102690009145A140B04008F06BC08981882359F072
:1026A000D501C401821B930BA40BB50BCC97A105DC
:1026B000B10508F44EC081E080939C028092D20163
:1026C0009092D301A092D401B092D50110919901BA
:1026D0006091A002772767FD7095212F332727FD92
:1026E0003095620F731F882777FD8095982F20E122
:1026F0003EE040E050E00E9466276B017C01C80C80
:10270000D91CEA1CFB1C60919A0117FF10C07727A7
:1027100067FD7095872F972F0E946627A701960166
:10272000261B370B480B590BCA01B9010FC077277D
:1027300067FD7095872F972F20E13EE040E050E045
:102740000E9466276C0D7D1D8E1D9F1D0E94A51188
:1027500019C010929C0216C080919D028F5F8093D9
:102760009D0210C080919E028F5F80939E0205C0E3
:1027700080919F028F5F80939F02C3016FE071E0A1
:102780000E94B40027960FB6F894DEBF0FBECDBFEF
:10279000CF91DF911F910F91FF90EF90DF90CF903D
:1027A000BF90AF909F908F907F906F900895AF9261
:1027B000BF92CF92DF92EF92FF920F931F93B62EAC
:1027C000A72E082F10E00E5F1F4F000F111F000FE4
:1027D000111FC02E8BEFE82E82E0F82EC70160910A
:1027E0001E010E94A918C701602F0E943519C70158
:1027F0006B2D0E943519C7010E947819C70160919D
:102800001E010E94A918DD240894C11CD11CC70117
:102810006C2D0E943519C7016A2D0E943519C70118
:102820000E9478191F910F91FF90EF90DF90CF9049
:10283000BF90AF900895CF92DF92FF920F931F93B6
:102840006B018A0193E0899FC0011124F82EB90120
:102850000E94D7138F2D8F5FB8010E94D7138F2D41
:102860008E5FB6010E94D7131F910F91FF90DF90EA
:10287000CF900895CF92DF92EF92FF920F931F9324
:102880008C017B016A0180E0B801A70196010E94DA
:102890001B1481E0B801A70196010E941B1482E07D
:1028A000B801A70196010E941B1483E0B801A7019B
:1028B00096010E941B141F910F91FF90EF90DF90E3
:1028C000CF9008958091A802882341F4609110016F
:1028D0007091110180E090E00E94C0016091A60219
:1028E0007091A7024091A4025091A50280911F010E
:1028F000909120010E943A148091A802823031F117
:10290000833030F4882361F0813009F059C012C05F
:10291000843091F1843020F1853009F051C03AC003
:1029200080911F01909120012BE0883B9207C0F518
:10293000049607C080911F0190912001009781F1BA
:1029400004979093200180931F0108958091A6021F
:102950009091A7022BE0883B920710F5049607C0E0
:102960008091A6029091A7020097D1F004979093CE
:10297000A7028093A60208958091A4029091A502D7
:102980002BE0883B920760F404969093A502809315
:10299000A40208958091A4029091A502009759F491
:1029A0000E94C90125E030E040E050E00E94C527C8
:1029B0006093A802089504979093A5028093A402BF
:1029C0000895809110019091110120919101332778
:1029D00027FD309545E0220F331F4A95E1F7280F78
:1029E000391F30931101209310018091A302873089
:1029F00008F453C08091A302873099F480911001AC
:102A0000909111016091100170911101409110019C
:102A1000509111016459784F4459584F8459984F37
:102A200037C08091A302883049F4809110019091C1
:102A300011018459984F60E070E028C08091A30292
:102A4000893049F460911001709111016459784FF7
:102A500080E090E01BC08091A3028A3059F440913D
:102A60001001509111014459584F80E090E060E00E
:102A700070E00EC08091A3028B3069F48091100148
:102A800090911101805A964F60EB74E040E050E065
:102A90000E943A1408950E94621408951F93182FFB
:102AA000882319F480E090E01EC0813029F484EC82
:102AB00099E064EC79E022C0823019F480E090E083
:102AC0001BC0833029F480E090E064EC79E00DC015
:102AD000843029F484EC99E068EE73E006C0853018
:102AE00039F484EC99E060E070E040E050E008C028
:102AF000863041F484EC99E060E070E044EC59E009
:102B00000E943A141093A3021F9108950F931F93EC
:102B10000BEF12E0C80160911E010E94A918C801C4
:102B200060E00E943519C80161E20E943519C801B0
:102B300060E10E943519C8010E9478191F910F9118
:102B400008951F920F920FB60F9211248F939F93A7
:102B50009091B10293701E9994601F99986099307A
:102B600090F4973000F5923011F1933028F49923C6
:102B700059F1913021F517C09430C9F09430D8F054
:102B80009530E9F421C09C30B1F09D3028F49A30A2
:102B9000D9F09B30A1F40BC09E3029F09E3038F064
:102BA0009F3069F411C08091B2028F5F0BC0809199
:102BB000B202815007C08091B2028E5F03C0809143
:102BC000B20282508093B2028091B2028093B3022B
:102BD000892F90E095958795959587958093B1027B
:102BE0008091B3028F3F19F48091AB0208C090919D
:102BF000B3028091AB02891740F48091AA028093BE
:102C0000B2028091B2028093B30281E0809390017E
:102C100080938F0184E690E09093970180939601D2
:102C2000109212019F918F910F900FBE0F901F90E5
:102C300018952E982F9885B1806C85B98091680081
:102C400081608093680080916B00806480936B004A
:102C500080916B00806880936B0083B190E026E0E8
:102C6000969587952A95E1F781701F9982608093E8
:102C7000B1020895FC0164830895FC018481689F7A
:102C8000602D112461834F5F489F402D11244150D6
:102C900042830895FC016093B2028481689F602D95
:102CA00011246093B3028091B30292818F3F39F473
:102CB0009093B2028091B2028093B3020895809102
:102CC000B302981738F481818093B2028091B202E6
:102CD0008093B3020895FC018091B2028F5F8093CC
:102CE000B2028091B3029481890F8093B3028091E4
:102CF000B30292818F3F39F49093B2028091B20275
:102D00008093B30208958091B302981738F48181BB
:102D10008093B2028091B2028093B3020895FC01C5
:102D20008091B20285838181868382818783089521
:102D3000FC0185818093B2028091B2028093B3023C
:102D4000868181838781828308952091B302FC016B
:102D50006481822F90E070E00E949E27862F089564
:102D60001092A9021092AA0280E38093AB02109203
:102D7000AC0284E08093AD0208958F929F92AF924F
:102D8000BF92CF92DF92EF92FF920F931F93CF9358
:102D9000DF937B018C01EA012CE330E040E050E05E
:102DA0000E94C5276883C801B7012CE330E040E0EA
:102DB00050E00E94C527122F032FF42EE52E622F1C
:102DC000732F842F952F2CE330E040E050E00E94D9
:102DD000C5276983612F702F8F2D9E2D2CE330E046
:102DE00040E050E00E94C527122F032FF42EE52E5D
:102DF000622F732F842F952F28E130E040E050E0C0
:102E00000E94C5276A83612F702F8F2D9E2D28E188
:102E100030E040E050E00E94C52779018A01C801F6
:102E2000B7016C5F7F4F8F4F9F4F27E030E040E04E
:102E300050E00E94C5276F5F6E8320E0AA24BB2468
:102E4000650101C02F5F822E9924F401EE54F84FE2
:102E5000CF0183709070892B99F4CF0164E670E004
:102E60000E94B227892B39F4CF0160E971E00E94FA
:102E7000B227892B29F48EE691E0A0E0B0E004C0EF
:102E80008DE691E0A0E0B0E0A80EB91ECA1EDB1EE0
:102E9000C501A0E0B0E0E816F9060A071B0790F6A6
:102EA0002D83F401EE54F84F83E0882E912C8E226E
:102EB0009F228114910499F4CF0164E670E00E948E
:102EC000B227892B39F4CF0160E971E00E94B22763
:102ED000892B29F48EE691E0A0E0B0E004C08DE6F5
:102EE00091E0A0E0B0E0A81AB90ACA0ADB0A98018A
:102EF00087010A191B092C093D09CF0164E670E01E
:102F00000E94B2277C01CF0160E971E00E94B227E4
:102F1000AC01E3E3F1E060E0613051F4811491042D
:102F200049F4E114F10441F44115510529F002C0BE
:102F3000808103C08CE101C08DE190E0A0E0B0E0B1
:102F4000081719072A073B0740F0081B190B2A0B23
:102F50003B0B6F5F31966C30F9F66F5F6C83802F9F
:102F60008F5F8B83DF91CF911F910F91FF90EF9037
:102F7000DF90CF90BF90AF909F908F9008954F9229
:102F80005F926F927F928F929F92AF92BF92CF92F9
:102F9000DF92EF92FF920F931F93CF93DF934C0139
:102FA000DC0115961C91612F70E080E090E020E834
:102FB00033E341EE51E00E9466275B016C0122EB96
:102FC00037E0E12FF0E0EE54F84F1DC0C9018370E7
:102FD0009070892BB1F4C90164E670E00E94B227B9
:102FE000892B39F4C90160E971E00E94B227892B6D
:102FF00041F480E891E5A1E0B0E0A80EB91ECA1E38
:10300000DB1E2F5F3F4F2E173F0701F7D4011496A9
:103010008C91482E5524C90164E670E00E94B227C5
:103020007C01C90160E971E00E94B2278C01C1E016
:10303000D0E093E0692E712C6222732227C0C23047
:10304000D10591F46114710479F4E114F10419F4D7
:103050000115110549F480E89BE3A6E2B0E0A80E53
:10306000B91ECA1EDB1E11C0FE01EE5CFE4F608160
:1030700070E080E090E020E831E541E050E00E941F
:103080006627A60EB71EC81ED91E2196C415D505E3
:10309000B4F2D40112966C9170E080E090E020E1EF
:1030A0003EE040E050E00E9466277B018C01F40185
:1030B000618170E080E090E02CE330E040E050E09F
:1030C0000E946627E60EF71E081F191FD4018C9177
:1030D000E80EF11C011D111D13966C9170E06150FA
:1030E0007040882777FD8095982F20E831E541E0F2
:1030F00050E00E946627E60EF71E081F191FEA0C13
:10310000FB1C0C1D1D1DB701C801DF91CF911F9144
:103110000F91FF90EF90DF90CF90BF90AF909F9076
:103120008F907F906F905F904F900895F999FECFA8
:1031300072BD61BDF89A80B50895F999FECF1FBAA6
:1031400072BD61BD40BD0FB6F894FA9AF99A0FBEF0
:10315000089581E08093FA026093D7021092F802FA
:103160001092F902089581E08093FA026093D702E9
:103170001092F8021092F90208952091D60230E0E0
:103180008091D502281B3109C90108954091D502CB
:103190008091D602481718F02FEF3FEF0AC0E42FB6
:1031A000F0E0EB54FD4F8081282F30E04F5F4093DB
:1031B000D502C9010895E091D5028091D602E817A1
:1031C00018F0EFEFFFEF06C0F0E0EB54FD4F808109
:1031D000E82FF0E0CF01089508951092FE021092BA
:1031E000FD0288EE93E0A0E0B0E08093FF029093B0
:1031F0000003A0930103B093020383E491E0909352
:10320000FC028093FB020895CF92DF92EF92FF922F
:103210000F931F93CF93DF937C016B018A01809101
:10322000FA028823A1F0C0E0D0E00DC0D701ED91F3
:10323000FC91D601AC0FBD1F0190F081E02DC701BC
:103240006C9109952196C017D10780F304C0CB017A
:10325000642F0E94361AC801DF91CF911F910F9100
:10326000FF90EF90DF90CF900895DF93CF930F9270
:10327000CDB7DEB7FC0169838091FA028823C9F0DB
:103280008091F902803238F081E090E0938382836C
:1032900020E030E015C08091F802E82FF0E0E8521D
:1032A000FD4F998190838F5F8093F8028093F9029C
:1032B00005C0CE01019661E00E94361A21E030E09F
:1032C000C9010F90CF91DF9108950F93062F809140
:1032D000D70268ED72E04091F90221E00E94E11905
:1032E0001092F8021092F9021092FA020F910895CA
:1032F00061E00E9465190895413208F040E2862F8E
:1033000065EB72E00E9498191092D5028093D60264
:10331000089521E00E947C1908951092D502109220
:10332000D6021092F8021092F9020E94E21B089550
:10333000382F413210F040E042C0809107038823CB
:10334000E1F791E090930703209309038FEF8093B7
:10335000740310922F034150409330034F5F9093BA
:10336000080380910803330F832B80930803809117
:103370000A03813041F410920A038091080380937C
:10338000BB0085EC01C085EE8093BC0080910703F3
:103390008130E1F380912F03841710F440912F03C3
:1033A00020E030E00AC0FB01E20FF31FD901A15F6A
:1033B000BC4F8C9180832F5F3F4F2417A0F3842F45
:1033C00008950F931F93582F122F413210F081E070
:1033D0004AC0809107038823E1F782E080930703C6
:1033E000009309038FEF8093740310922F0340938F
:1033F0003003AFE0B3E0FB0102C081918D938E2FCB
:10340000861B8417D0F31092080380910803550F90
:10341000852B8093080380910A03813041F4109238
:103420000A03809108038093BB0085EC01C085EE00
:103430008093BC00112321F0809107038230E1F3D7
:10344000809174038F3F11F480E00DC0809174036C
:10345000803211F482E007C080917403803311F050
:1034600084E001C083E01F910F910895482F6132DD
:1034700010F081E0089580910703843011F082E01C
:10348000089560935203A1E3B3E0842F9C01F901F6
:1034900002C081918D938E2F841B8617D0F380E01C
:1034A00008951F920F920FB60F9211242F933F93FE
:1034B0004F935F936F937F938F939F93AF93BF933C
:1034C000EF93FF938091B90090E0887F90708036F1
:1034D000910509F4F2C081369105CCF58832910549
:1034E00009F47BC089329105B4F48031910509F467
:1034F0006FC0813191053CF4009709F447C10897EA
:1035000009F04FC165C08831910509F466C0809704
:1035100009F047C182C08034910509F4A4C0813408
:10352000910544F48033910509F482C0C89709F0ED
:1035300038C189C08035910509F489C08835910565
:1035400009F496C08834910509F02BC1AEC08839C2
:10355000910509F413C189399105ECF48837910577
:1035600009F4ABC0893791054CF48836910509F40C
:10357000A4C08037910509F014C19FC08838910517
:1035800009F4FCC08039910509F49DC0803891058B
:1035900009F007C198C0803B910509F4C6C0813B82
:1035A00091054CF4803A910509F49FC0883A910541
:1035B00009F0F7C0BAC0803C910509F4E3C0883C2B
:1035C000910509F4DFC0883B910509F0EAC0C2C04B
:1035D000809108038093BB00CFC090912F0380910E
:1035E0003003981768F490912F03E92FF0E0E15F22
:1035F000FC4F80818093BB009F5F90932F03BCC0E2
:1036000080910903882309F44BC085ED8093BC00A9
:103610008091BC0084FDFCCFC2C080E28093740323
:1036200085ED8093BC008091BC0084FDFCCFB7C0C9
:1036300080E38093740385ED8093BC008091BC008F
:1036400084FDFCCFACC088E3809374039BC0809161
:103650002F039091BB00E82FF0E0E15FFC4F9083D7
:103660008F5F80932F0390912F038091300382C04E
:1036700080912F039091BB00E82FF0E0E15FFC4FB9
:1036800090838F5F80932F0380910903882341F0FB
:1036900085ED8093BC008091BC0084FDFCCF7FC091
:1036A00081E080930A0384EA6EC085ED8093BC00BC
:1036B0008091BC0084FDFCCF72C083E0809307033F
:1036C0001092730359C080917303803208F056C082
:1036D000809173039091BB00E82FF0E0ED5AFC4F0E
:1036E00090838F5F8093730347C080917303803210
:1036F00030F4E0917303F0E0ED5AFC4F108285ED59
:103700008093BC008091BC0084FDFCCF1092070325
:1037100060917303E0910D03F0910E0383E593E054
:1037200070E00995109273032DC084E08093070325
:103730001092510310925203E0910B03F0910C038D
:10374000099580915203882329F481E080935203E4
:103750001092310390915103E92FF0E0EF5CFC4FA0
:1037600080818093BB009F5F9093510390915103A0
:1037700080915203981710F485EC01C085E880937E
:10378000BC000FC085EC8093BC0009C0109274038C
:1037900085ED8093BC008091BC0084FDFCCF10922D
:1037A0000703FF91EF91BF91AF919F918F917F910F
:1037B0006F915F914F913F912F910F900FBE0F909E
:1037C0001F9018951092070381E0809309031092CF
:1037D0000A0382E161E00E94272283E161E00E9406
:1037E0002722E9EBF0E080818E7F808380818D7FCE
:1037F000808380E28093B80085E48093BC000895C4
:10380000462F862F6AE00E948527282F30E084E02B
:10381000220F331F8A95E1F7842F0E948527892F75
:10382000820F0895FC011082118208950F931F9357
:10383000062F8BEF92E068E670E00E94B31810E06C
:10384000085F1F4F8BEF92E0602F0E9435198BEFBE
:1038500092E00E9478198BEF92E068E670E041E018
:1038600050E00E9489198BEF92E00E94BD18892BCD
:1038700011F480E004C08BEF92E00E94C6181F9103
:103880000F9108951F93CF93DF93FC01EB0180818B
:10389000882381F18BEF92E068E670E00E94B31814
:1038A0008BEF92E067E00E9435198BEF92E00E9467
:1038B00078198BEF92E068E670E041E050E00E94FA
:1038C00089198BEF92E00E94BD18892B11F480E0DA
:1038D00004C08BEF92E00E94C618182F1C7F1C2B8F
:1038E0008BEF92E068E670E00E94B3188BEF92E0F5
:1038F00067E034C08BEF92E068E670E00E94B31896
:103900008BEF92E06EE00E9435198BEF92E00E94FF
:1039100078198BEF92E068E670E041E050E00E9499
:1039200089198BEF92E00E94BD18892B11F480E079
:1039300004C08BEF92E00E94C618182F177E34E067
:10394000CC0FDD1F3A95E1F71C2B8BEF92E068E678
:1039500070E00E94B3188BEF92E06EE00E94351980
:103960008BEF92E0612F0E9435198BEF92E00E945D
:103970007819DF91CF911F9108951F93FC01162FA5
:1039800080818823A1F18BEF92E068E670E00E94CD
:10399000B3188BEF92E067E00E9435198BEF92E04D
:1039A0000E9478198BEF92E068E670E041E050E009
:1039B0000E9489198BEF92E00E94BD18892B11F4A7
:1039C00080E004C08BEF92E00E94C618112319F02A
:1039D000182F106102C0182F1F7E8BEF92E068E64F
:1039E00070E00E94B3188BEF92E067E034C08BEF79
:1039F00092E068E670E00E94B3188BEF92E06EE010
:103A00000E9435198BEF92E00E9478198BEF92E0BB
:103A100068E670E041E050E00E9489198BEF92E087
:103A20000E94BD18892B11F480E004C08BEF92E056
:103A30000E94C618112321F0182F10641B7F02C0AA
:103A4000182F1F7B8BEF92E068E670E00E94B3189E
:103A50008BEF92E06EE00E9435198BEF92E0612FC0
:103A60000E9435198BEF92E00E9478191F910895FA
:103A7000EF92FF920F931F93162F042F4BEFE42E1C
:103A800042E0F42EC70168E670E00E94B318402FB0
:103A900050E0485F5F4FC701642F0E943519C7018E
:103AA000612F0E943519C7010E9478191F910F914B
:103AB000FF90EF900895BF92CF92DF92EF92FF9226
:103AC0000F931F937C01B62EC42ED22E0BEF12E063
:103AD000C80168E670E00E94B318C80160E00E9467
:103AE0003519C7016D2D0E94001C682FC8010E9466
:103AF0003519C7016C2D0E94001C682FC8010E9457
:103B00003519C7016B2D0E94001C682FC8010E9447
:103B10003519C8010E9478191F910F91FF90EF90FD
:103B2000DF90CF90BF9008958F929F92AF92BF92F7
:103B3000CF92DF92EF92FF920F931F93DF93CF9379
:103B4000CDB7DEB729970FB6F894DEBF0FBECDBF55
:103B50004B015A0169018BEF92E068E670E00E9428
:103B6000B3188BEF92E060E00E9435198BEF92E082
:103B70000E9478198BEF92E068E670E047E050E031
:103B80000E9489198E010F5F1F4F58E0E52EF12C1E
:103B9000EC0EFD1E8BEF92E00E94BD18892B51F0B8
:103BA0008BEF92E00E94C618F80181938F01EE1509
:103BB000FF0581F78BEF92E00E947819C114D104C0
:103BC00061F08981282F22952F709AE0299F90011A
:103BD00011248F70820FF6018083A114B10461F06B
:103BE0008A81282F22952F709AE0299F9001112415
:103BF0008F70820FF50180838114910461F08B81B5
:103C0000282F22952F709AE0299F900111248F7000
:103C1000820FF401808329960FB6F894DEBF0FBEA1
:103C2000CDBFCF91DF911F910F91FF90EF90DF906B
:103C3000CF90BF90AF909F908F900895CF92DF92DA
:103C4000EF92FF920F931F93DF93CF93CDB7DEB721
:103C500029970FB6F894DEBF0FBECDBF8C018BEF56
:103C600092E068E670E00E94B3188BEF92E060E0AB
:103C70000E9435198BEF92E00E9478198BEF92E049
:103C800068E670E047E050E00E9489197E010894E0
:103C9000E11CF11C68E0C62ED12CCC0EDD1E8BEF92
:103CA00092E00E94BD18892B51F08BEF92E00E94A8
:103CB000C618F70181937F01EC15FD0581F78BEFA5
:103CC00092E00E9478192981822F8F7789838295CB
:103CD0008F703AE0839FC00111242F70280FF801E4
:103CE000228313822A81822F82958F70839FC00145
:103CF00011242F70280F248315822B81822F829507
:103D00008F70839FC00111242F70280F2683178284
:103D10002D81822F82958F70839FC00111242F7077
:103D2000280F208711862E81822F82958F70839F86
:103D3000C00111242F70280F228713862F81822F14
:103D400082958F70839FC00111242F70280F2487C4
:103D500015862C81822F82958F70839FC00111243C
:103D60002F70280F2687178686819781009719F470
:103D7000128A118A06C08C30910534F4F801928BB6
:103D8000818B81E0808B05C00C97F801928B818B31
:103D9000108A98012E5F3F4FC90129960FB6F894FB
:103DA000DEBF0FBECDBFCF91DF911F910F91FF906E
:103DB000EF90DF90CF900895EF92FF920F931F93B3
:103DC000E62EF42E0BEF12E0C80168E670E00E94C8
:103DD000B318C8016F2D0E943519C8016E2D0E94BD
:103DE0003519C8010E9478191F910F91FF90EF902B
:103DF00008951F93162F8BEF92E068E670E00E9403
:103E0000B3188BEF92E0612F0E9435198BEF92E08F
:103E10000E9478198BEF92E068E670E041E050E094
:103E20000E9489198BEF92E00E94BD18892B11F432
:103E300080E004C08BEF92E00E94C6181F910895A5
:103E4000DF92EF92FF920F931F93DF93CF9300D0F7
:103E50000F92CDB7DEB77C01FC018081882339F158
:103E6000C70160E00E94161C182FC70161E00E9484
:103E7000161CD82EC70162E00E94161C082FC7012D
:103E8000BE016F5F7F4FAE014E5F5F4F9E012D5FA2
:103E90003F4F0E94941D89818117D9F48A818D1525
:103EA000C1F490E08B818017A9F491E013C0C701A1
:103EB0006FE00E94F91E682F90E08C010170107075
:103EC00080FF05C06E7FC7014FE00E94DC1E902F6F
:103ED00001C090E0892F0F900F900F90CF91DF914C
:103EE0001F910F91FF90EF90DF900895AF92BF92D6
:103EF000CF92DF92EF92FF921F93CF93DF93EC016B
:103F00005B016A01790188818823D9F06115710507
:103F100031F0CE0160E00E94161CF5018083C114CF
:103F2000D10431F0CE0161E00E94161CF6018083BD
:103F3000E114F104A1F1CE0162E00E94161CF70128
:103F40002DC0CE0167E00E94F91E282F2F77229501
:103F50002F701AE0219F900111248F70820FF701BA
:103F60008083CE0168E00E94F91E282F2F772295CA
:103F70002F70219F900111248F70820FF601808392
:103F8000CE0169E00E94F91E282F2F7722952F700D
:103F9000219F900111248F70820FF5018083DF91A2
:103FA000CF911F91FF90EF90DF90CF90BF90AF9097
:103FB00008950F931F93DF93CF9300D00F92CDB747
:103FC000DEB78C01BE016F5F7F4FAE014E5F5F4F6A
:103FD0009E012D5F3F4F0E94761F8981F8018683E5
:103FE00017828A81848315828B81828313820E5F7C
:103FF0001F4FC8010F900F900F90CF91DF911F912D
:104000000F910895FF920F931F93CF93DF93EC01CD
:10401000F62E042F122F8881882379F0CE0140E0FC
:104020000E94381DCE01602F41E00E94381DCE0154
:10403000612F42E00E94381D2AC0CE01622F0E94EB
:10404000001C682FCE0147E00E94DC1ECE01602FCD
:104050000E94001C682FCE0148E00E94DC1ECE01A9
:104060006F2D0E94001C682FCE0149E00E94DC1ECB
:10407000CE0161E84AE00E94DC1ECE016FE00E94A2
:10408000F91E682F6E7FCE014FE00E94DC1EDF918B
:10409000CF911F910F91FF9008951F93CF93DF93BE
:1040A000EC01162F8981882379F4CE0160E00E940B
:1040B000F91E112319F0682F6F7702C0682F60680E
:1040C000CE0140E00E94DC1EDF91CF911F91089548
:1040D0000F931F93CF93DF93EC0161E10E94F91ED0
:1040E000082FCE0162E10E94F91E182FCE016EEE5C
:1040F00041E10E94DC1ECE016DED42E10E94DC1E1A
:10410000CE0161E10E94F91E8E3E99F4CE0162E17A
:104110000E94F91E8D3D69F481E08883CE01602FF5
:1041200041E10E94DC1ECE01612F42E10E94DC1EB3
:1041300002C081E08983DF91CF911F910F91089593
:104140001F920F920FB60F9211242F933F934F930C
:104150005F936F937F938F939F93AF93BF932091C0
:10416000790330917A0340917B0350917C037091E5
:104170007D03DA01C9010296A11DB11D672F6A5F97
:104180006D3730F06D57DA01C9010396A11DB11DDD
:1041900060937D038093790390937A03A0937B03CC
:1041A000B0937C038091750390917603A09177037F
:1041B000B09178030196A11DB11D80937503909372
:1041C0007603A0937703B0937803BF91AF919F914B
:1041D0008F917F916F915F914F913F912F910F90B0
:1041E0000FBE0F901F9018959B01AC017FB7F894FC
:1041F0008091750390917603A0917703B091780335
:1042000066B5A89B05C06F3F19F00196A11DB11DB1
:104210007FBFBA2FA92F982F8827860F911DA11D28
:10422000B11D63E0880F991FAA1FBB1F6A95D1F7C4
:10423000BC012DC0FFB7F89480917503909176036F
:10424000A0917703B0917803E6B5A89B05C0EF3F36
:1042500019F00196A11DB11DFFBFBA2FA92F982FEC
:1042600088278E0F911DA11DB11DE3E0880F991FB6
:10427000AA1FBB1FEA95D1F7861B970B885E934058
:10428000C8F2215030404040504068517C4F2115C9
:1042900031054105510571F60895789484B5826021
:1042A00084BD84B5816084BD85B5826085BD85B5DA
:1042B000816085BDEEE6F0E0808181608083E1E889
:1042C000F0E01082808182608083808181608083C1
:1042D000E0E8F0E0808181608083E1EBF0E08081C4
:1042E00084608083E0EBF0E0808181608083EAE796
:1042F000F0E080818460808380818260808380811F
:10430000816080838081806880831092C1000895DD
:104310001F93CF93DF93182FEB0161E00E94E821F8
:10432000209709F44AC0CF3FD10509F449C0E12FD5
:10433000F0E0EA52FF4F84918330C1F0843028F4DA
:10434000813051F08230B1F50CC0863019F18730E0
:1043500049F1843079F514C084B5806884BDC7BD47
:1043600033C084B5806284BDC8BD2EC080918000FA
:10437000806880938000D0938900C093880024C017
:1043800080918000806280938000D0938B00C093E6
:104390008A001AC08091B00080688093B000C093FA
:1043A000B30012C08091B00080628093B000C093CF
:1043B000B4000AC0C038D1051CF4812F60E002C0EF
:1043C000812F61E00E942722DF91CF911F910895F4
:1043D000CF93DF93482F50E0CA018E539F4FFC01CB
:1043E000349142555F4FFA018491882369F190E03E
:1043F000880F991FFC01E057FF4FA591B491FC0174
:10440000E656FF4FC591D491662351F42FB7F89427
:104410008C91932F909589238C93888189230BC04D
:10442000623061F42FB7F8948C91932F9095892383
:104430008C938881832B88832FBF06C09FB7F89405
:104440008C91832B8C939FBFDF91CF910895482F40
:1044500050E0CA018A529F4FFC012491CA018E5339
:104460009F4FFC01949142555F4FFA0134913323E1
:1044700009F440C0222351F1233071F0243028F494
:104480002130A1F0223011F514C02630B1F02730D0
:10449000C1F02430D9F404C0809180008F7703C02C
:1044A000809180008F7D8093800010C084B58F77CD
:1044B00002C084B58F7D84BD09C08091B0008F7724
:1044C00003C08091B0008F7D8093B000E32FF0E0B7
:1044D000EE0FFF1FE656FF4FA591B4912FB7F8944A
:1044E000662321F48C919095892302C08C91892BAD
:1044F0008C932FBF089508951F920F920FB60F92BD
:1045000011242F933F934F938F939F93EF93FF9398
:104510008091C00082FD1DC04091C6002091BE0365
:104520003091BF032F5F3F4F2F7330708091C003D6
:104530009091C1032817390771F0E091BE03F09103
:10454000BF03E258FC4F40833093BF032093BE0368
:1045500002C08091C600FF91EF919F918F914F9182
:104560003F912F910F900FBE0F901F901895E091E3
:104570001204F0911304E05CFF4F8191919120812E
:104580003181821B930B8F739070892B11F00E94E5
:104590007B2208951F920F920FB60F9211242F9332
:1045A0003F938F939F93EF93FF9320910204309159
:1045B000030480910404909105042817390731F40D
:1045C0008091C1008F7D8093C10014C0E0910404EC
:1045D000F0910504EE53FC4F2081809104049091EA
:1045E000050401968F7390709093050480930404E2
:1045F0002093C600FF91EF919F918F913F912F9152
:104600000F900FBE0F901F901895AF92BF92DF9240
:10461000EF92FF920F931F93CF93DF93EC017A01F8
:104620008B01DD24D39491E0A92EB12CEC89FD8976
:10463000DD2069F0C50108A002C0880F991F0A9407
:10464000E2F7808360E874E88EE190E005C01082B4
:1046500060E472E48FE090E0A80197010E94C52712
:10466000215030404040504056954795379527950A
:1046700080E12030380720F0DD2011F0DD24D6CF96
:10468000E889F9893083EA89FB89208319A2EE89B8
:10469000FF89408121E030E0C9010C8C02C0880F05
:1046A000991F0A94E2F7482B4083EE89FF894081E5
:1046B000C9010D8C02C0880F991F0A94E2F7482B9C
:1046C0004083EE89FF894081C9010E8C02C0880FAA
:1046D000991F0A94E2F7482B4083EE89FF89808175
:1046E0000F8C02C0220F331F0A94E2F72095282373
:1046F0002083DF91CF911F910F91FF90EF90DF907A
:10470000BF90AF900895DC011C96ED91FC911D9730
:10471000E05CFF4F2191319180819181281B390B01
:104720002F733070C9010895DC011C96ED91FC9146
:104730001D97E05CFF4F20813181E054F040DF01A4
:10474000AE5BBF4F8D919C9111972817390719F4D3
:104750002FEF3FEF07C08D919C91E80FF91F8081EB
:10476000282F30E0C9010895DC011C96ED91FC91E1
:104770001D97E05CFF4F20813181E054F040DF0164
:10478000AE5BBF4F8D919C9111972817390719F493
:104790002FEF3FEF10C08D919C911197E80FF91FFB
:1047A00020818D919C91119701968F739070119635
:1047B0009C938E9330E0C9010895DC0191968C9111
:1047C0009197882339F05496ED91FC91559780810B
:1047D00086FFF9CF91961C920895CF93DF93EC0159
:1047E000EE85FF85E05CFF4F20813181E054F04091
:1047F0002F5F3F4F2F733070DF01AE5BBF4F8D9146
:104800009C91119728173907D1F3E05CFF4F808105
:104810009181E054F040E80FF91F6083EE85FF8539
:10482000E05CFF4F31832083EE89FF89208181E0A6
:1048300090E00F8C02C0880F991F0A94E2F7282B92
:10484000208381E089A3EC89FD8980818064808355
:1048500081E090E0DF91CF910895109209041092C9
:10486000080488EE93E0A0E0B0E080930A049093FF
:104870000B04A0930C04B0930D0483E591E0909396
:104880000704809306048EE793E0909313048093CB
:10489000120482EC93E0909315048093140485EC49
:1048A00090E0909317048093160484EC90E090932A
:1048B00019048093180480EC90E090931B0480937B
:1048C0001A0481EC90E090931D0480931C0482EC08
:1048D00090E090931F0480931E0486EC90E09093E8
:1048E00021048093200484E08093220483E0809359
:1048F000230487E08093240485E08093250481E0ED
:10490000809326040895CF93DF930E944D210E9447
:10491000BF01C7EBD2E20E94E7052097E1F30E94B6
:10492000B722F9CFCF92DF92EF92FF920F931F93AE
:10493000CF93DF937C016B018A01C0E0D0E00FC010
:10494000D6016D916D01D701ED91FC910190F0813F
:10495000E02DC7010995C80FD91F0150104001155E
:10496000110571F7CE01DF91CF911F910F91FF904B
:10497000EF90DF90CF900895813041F0813018F0B2
:104980008230D1F409C010926E00089580916F00BA
:104990008D7F80936F000895809170008D7F80934C
:1049A000700081E08093B0008091B100887F8460C6
:1049B0008093B1001092B30008951F93182F809137
:1049C0002101811711F09FEF06C0EAEEF0E094910B
:1049D0008FEF80932101892F0E94BC24812F60E0FA
:1049E0000E9427221F9108951F920F920FB60F92D7
:1049F00011242F933F934F935F936F937F938F93E4
:104A00009F93AF93BF93EF93FF9380913604909160
:104A10003704A0913804B09139040097A105B1057D
:104A200051F1E0913A04F0913B04808190913C0473
:104A3000892780838091360490913704A0913804AF
:104A4000B0913904181619061A061B06C4F4809191
:104A5000360490913704A0913804B091390401973D
:104A6000A109B1098093360490933704A0933804C8
:104A7000B093390404C0809121010E94DD24FF918C
:104A8000EF91BF91AF919F918F917F916F915F91C6
:104A90004F913F912F910F900FBE0F901F9018953F
:104AA0002F923F925F926F927F928F929F92AF92DE
:104AB000BF92CF92DF92EF92FF920F931F93DF93FB
:104AC000CF9300D000D0CDB7DEB7A82F1B0129832C
:104AD0003A834B835C83809121018A1721F4EAEEAB
:104AE000F0E0549082C08F3F09F0DAC1A093210119
:104AF000EAEEF0E054902FEF521609F4D1C181E0B4
:104B0000581639F192E0591609F449C0552009F0B8
:104B10006CC014BC15BC84B5826084BD85B5816051
:104B200085BD2A2F30E0F901E255FF4FE491F0E016
:104B3000EE0FFF1FE656FF4F8591949190932D0441
:104B400080932C042E533F4FF901849180932E04BF
:104B50004EC0109280001092810080918100886088
:104B600080938100809181008160809381002A2F51
:104B700030E0F901E255FF4FE491F0E0EE0FFF1F46
:104B8000E656FF4F859194919093340480933304BB
:104B90002E533F4FF90184918093350428C0109221
:104BA000B0001092B1008091B00082608093B0009C
:104BB0008091B10081608093B1002A2F30E0F9012B
:104BC000E255FF4FE491F0E0EE0FFF1FE656FF4F76
:104BD0008591949190933B0480933A042E533F4FD8
:104BE000F901849180933C0402C057FC59C18A2F7B
:104BF00061E00E94E821552021F0F2E05F1609F003
:104C0000BEC031018824992460E079E08DE390E012
:104C1000A40193010E94E72759016A0186017501E9
:104C20000894E108F108010911092FEFE216F104D7
:104C30000105110509F008F499C060E271EA87E006
:104C400090E0A40193010E94E72779018A0108946A
:104C5000E108F1080109110982E05816C1F49FEF3B
:104C6000E916F1040105110509F008F484C068E4AF
:104C700078EE81E090E0A40193010E94E72779019A
:104C80008A010894E108F1080109110983E0AFEFF6
:104C9000EA16F1040105110509F008F468C064E2A0
:104CA00074EF80E090E0A40193010E94E72779016E
:104CB0008A010894E108F10801091109552011F44D
:104CC00083E01DC0B2E05B1611F084E018C0EFEF86
:104CD000EE16F1040105110509F008F4DFC062E1E8
:104CE0007AE780E090E0A40193010E94E727790130
:104CF0008A010894E108F1080109110985E0FFEF34
:104D0000EF16F1040105110591F188F169E07DE3E9
:104D100080E090E0A40193010E94E72779018A01D5
:104D20000894E108F10801091109552011F086E005
:104D300001C084E02FEFE216F10401051105B9F07E
:104D4000B0F0C601B50120E034E040E050E00E9440
:104D5000E72779018A010894E108F108010911099E
:104D6000552011F087E008C085E003C081E05520A0
:104D700019F485BD3AC082E08093B10036C051017C
:104D8000CC24DD2460E079E08DE390E0A60195017C
:104D90000E94E72779018A010894E108F1080109D6
:104DA000110980E0E81680E0F80681E0080780E05D
:104DB000180710F491E010C064E274EF80E090E016
:104DC000A60195010E94E72779018A010894E1086C
:104DD000F1080109110993E0A1E05A1631F480911C
:104DE0008100887F982B9093810089819A81AB8183
:104DF000BC810097A105B10529F48FEF9FEFAFEFBC
:104E0000BFEF13C0220C331CB10180E090E0298178
:104E10003A814B815C810E94662728EE33E040E0B6
:104E200050E00E94C527C901DA01E1E05E16A1F059
:104E3000F2E05F1619F1552099F5E7BC809328043C
:104E400090932904A0932A04B0932B0480916E00C0
:104E5000826080936E0024C0F0928900E092880006
:104E600080932F0490933004A0933104B0933204C4
:104E700080916F00826080936F0012C0E092B30057
:104E80008093360490933704A0933804B093390488
:104E90008091700082608093700002C084E06CCFCB
:104EA0000F900F900F900F90CF91DF911F910F9166
:104EB000FF90EF90DF90CF90BF90AF909F908F903A
:104EC0007F906F905F903F902F900895629FD001E8
:104ED000739FF001829FE00DF11D649FE00DF11DB5
:104EE000929FF00D839FF00D749FF00D659FF00D64
:104EF0009927729FB00DE11DF91F639FB00DE11D51
:104F0000F91FBD01CF0111240895991B79E004C058
:104F1000991F961708F0961B881F7A95C9F78095F8
:104F2000089587FB082E062687FD819567FD61950C
:104F3000ECDF0EF4919507FC81950895AA1BBB1B2D
:104F400051E107C0AA1FBB1FA617B70710F0A61B89
:104F5000B70B881F991F5A95A9F780959095BC01AA
:104F6000CD01089597FB092E07260AD077FD04D0BE
:104F7000E5DF06D000201AF4709561957F4F089503
:104F8000F6F7909581959F4F0895A1E21A2EAA1BDE
:104F9000BB1BFD010DC0AA1FBB1FEE1FFF1FA217E9
:104FA000B307E407F50720F0A21BB30BE40BF50BE6
:104FB000661F771F881F991F1A9469F7609570956F
:104FC000809590959B01AC01BD01CF01089597FBA1
:104FD000092E05260ED057FD04D0D7DF0AD0001CBD
:104FE00038F450954095309521953F4F4F4F5F4F86
:104FF0000895F6F790958095709561957F4F8F4F46
:105000009F4F0895EE0FFF1F0590F491E02D099436
:10501000F894FFCF244750524D432C002C2A0D000A
:105020002A0D0000E80301010201010104CCCAEFCE
:10503000BE0140E803FF303132333435363738397A
:10504000414243444546001F1C1F1E1F1E1F1F1EBA
:105050001F1E1F0000000035190419BD18C618DBFB
:1050600018EC1800000000ED2392248323B423944D
:1050700023DD2300FFFFFFFFFFFFFFFFFFFFFFFF19
:10508000FFFFFFFFFFFFFFFFFFFFFFFFFFFFFFFF30
:10509000FFFFFFFFFFFFFFFFFFFFFFFFFFFFFFFF20
:1050A000FFFFFFFFFFFFFFFFFFFFFFFFFFFFFFFF10
:1050B000FFFFFFFFFFFFFFFFFFFFFFFFFFFFFFFF00
:107800000C94343C0C94513C0C94513C0C94513CE1
:107810000C94513C0C94513C0C94513C0C94513CB4
:107820000C94513C0C94513C0C94513C0C94513CA4
:107830000C94513C0C94513C0C94513C0C94513C94
:107840000C94513C0C94513C0C94513C0C94513C84
:107850000C94513C0C94513C0C94513C0C94513C74
:107860000C94513C0C94513C11241FBECFEFD8E036
:10787000DEBFCDBF11E0A0E0B1E0EAE8FFE702C063
:1078800005900D92A230B107D9F712E0A2E0B1E065
:1078900001C01D92AD30B107E1F70E942D3D0C945F
:1078A000C33F0C94003C982F95959595959595958B
:1078B000905D8F708A307CF0282F295A8091C0000B
:1078C00085FFFCCF9093C6008091C00085FFFCCF60
:1078D0002093C6000895282F205DF0CF982F809127
:1078E000C00085FFFCCF9093C6000895EF92FF92F1
:1078F0000F931F93EE24FF2487018091C00087FD22
:1079000017C00894E11CF11C011D111D81E2E8164D
:1079100081EAF80687E0080780E0180770F3E09135
:107920000401F091050109958091C00087FFE9CF1E
:107930008091C6001F910F91FF90EF9008950E94D3
:10794000763C982F8091C00085FFFCCF9093C600B5
:1079500091362CF490330CF09053892F089597555D
:10796000892F08951F930E949F3C182F0E949F3CCF
:107970001295107F810F1F9108951F93182F882350
:1079800021F00E94763C1150E1F71F9108951F935A
:10799000182F0E94763C803249F0809103018F5F5E
:1079A000809303018530C1F01F9108958091C0003C
:1079B00085FFFCCF84E18093C6008091C00085FFE5
:1079C000FCCF1093C6008091C00085FFFCCF80E102
:1079D0008093C6001F910895E0910401F091050184
:1079E00009951F9108950E94763C803241F0809164
:1079F00003018F5F80930301853081F008958091AA
:107A0000C00085FFFCCF84E18093C6008091C00058
:107A100085FFFCCF80E18093C6000895E0910401CA
:107A2000F09105010995089548EC50E08823A1F0F4
:107A30002D9A28EE33E0FA013197F1F721503040CA
:107A4000D1F72D9828EE33E0FA013197F1F7215064
:107A50003040D1F7815061F708953F924F925F9285
:107A60006F927F928F929F92AF92BF92CF92DF924E
:107A7000EF92FF920F931F93CF93DF93000082E06A
:107A80008093C00080E18093C4001092C50088E11B
:107A90008093C10086E08093C2005098589A259A3E
:107AA00081E00E94143D24E1F22E9EE1E92E85E959
:107AB000D82E0FE0C02E10E1B12EAA24A394B1E479
:107AC0009B2EA6E58A2EF2E57F2EE0E26E2E79E46B
:107AD000572E63E5462E50E5352E0E94763C8033C6
:107AE000B1F18133B9F1803409F46FC0813409F404
:107AF00076C0823409F485C0853409F488C08035A5
:107B000031F1823521F1813511F1853509F485C0D6
:107B1000863509F48DC0843609F496C0843709F49B
:107B200003C1853709F472C1863709F466C08091B4
:107B300003018F5F80930301853079F6E0910401A2
:107B4000F091050109950E94763C803351F60E9420
:107B5000F33CC3CF0E94763C803249F78091C0004D
:107B600085FFFCCFF092C6008091C00085FFFCCF5E
:107B70009092C6008091C00085FFFCCF8092C60025
:107B80008091C00085FFFCCF7092C6008091C0003C
:107B900085FFFCCF6092C6008091C00085FFFCCFBE
:107BA0005092C6008091C00085FFFCCF4092C60075
:107BB0008091C00085FFFCCF3092C6008091C0004C
:107BC00085FFFCCFB092C60088CF0E94763C8638F5
:107BD00008F4BDCF0E94763C0E94F33C7ECF0E9409
:107BE000763C803809F49CC0813809F40BC1823896
:107BF00009F430C1883909F48FC080E00E94C73C85
:107C00006CCF84E10E94BD3C0E94F33C66CF85E0CE
:107C10000E94BD3C0E94F33C60CF0E94763C809362
:107C200006010E94763C809307010E94F33C55CFE9
:107C30000E94763C803309F411C183E00E94BD3C70
:107C400080E00E94C73C49CF0E94763C80930902A5
:107C50000E94763C8093080280910C028E7F809374
:107C60000C020E94763C853409F409C18091080217
:107C700090910902892B89F000E010E00E94763C87
:107C8000F801E85FFE4F80830F5F1F4F809108026D
:107C9000909109020817190788F30E94763C8032F8
:107CA00009F045CF80910C0280FFF5C0609106017C
:107CB00070910701660F771F7093070160930601AB
:107CC000A0910802B09109021097C9F0E8E0F1E034
:107CD0009B01AD014E0F5F1FF999FECF32BD21BD53
:107CE000819180BDFA9AF99A2F5F3F4FE417F5070B
:107CF00099F76A0F7B1F70930701609306018091CB
:107D0000C00085FFFCCFF092C6008091C00085FFC7
:107D1000FCCFB092C600E1CE83E00E94C73CDDCE2E
:107D200082E00E94C73CD9CE0E94763C8093090233
:107D30000E94763C80930802809106019091070191
:107D4000880F991F90930701809306010E94763C4B
:107D5000853409F49AC080910C028E7F80930C02C6
:107D60000E94763C803209F0B8CE8091C00085FF39
:107D7000FCCFF092C600A0910802B09109021097C2
:107D8000C1F180910C02082F0170182F1695117007
:107D9000E0910601F0910701AF014F5F5F4FBA011B
:107DA00020E030E00023B1F4112339F49491809164
:107DB000C00085FFFCCF9093C6002F5F3F4FCB01E3
:107DC0000196FA012A173B0780F4BC014F5F5F4F11
:107DD000002351F3F999FECFF2BDE1BDF89A90B5B9
:107DE0008091C00085FFFCCFE6CF709307016093C0
:107DF00006018091C00085FDE5CE8091C00085FF21
:107E0000F8CFE0CE81E00E94C73C67CE0E94763C6E
:107E1000803209F08CCE8091C00085FFFCCFF092BB
:107E2000C6008091C00085FFFCCFE092C600809123
:107E3000C00085FFFCCFD092C6008091C00085FFB6
:107E4000FCCFC092C6008091C00085FFFCCFB092ED
:107E5000C60043CE80E10E94C73C3FCE0E94763CE4
:107E60000E94763C182F0E94763C112309F483C0AF
:107E7000113009F484C08FE00E94C73C2ECE80915F
:107E80000C02816080930C02F1CE80910C02816023
:107E900080930C0265CF809107018823880F880B9F
:107EA0008A2180930B028091060190910701880F2F
:107EB000991F90930701809306018091080280FF2B
:107EC00009C08091080290910902019690930902DD
:107ED00080930802F894F999FECF1127E0910601EA
:107EE000F0910701C8E0D1E0809108029091090269
:107EF000103091F40091570001700130D9F303E084
:107F000000935700E8950091570001700130D9F3B4
:107F100001E100935700E8950990199000915700EE
:107F200001700130D9F301E000935700E8951395F3
:107F3000103498F011270091570001700130D9F3E7
:107F400005E000935700E89500915700017001305B
:107F5000D9F301E100935700E8953296029709F0B2
:107F6000C7CF103011F00296E5CF11248091C000E8
:107F700085FFC5CEC8CE8EE10E94C73CAECD85E957
:107F80000E94C73CAACDF894FFCF8000FFFFFFFFFF
:107F9000FFFFFFFFFFFFFFFFFFFFFFFFFFFFFFFFF1
:107FA000FFFFFFFFFFFFFFFFFFFFFFFFFFFFFFFFE1
:107FB000FFFFFFFFFFFFFFFFFFFFFFFFFFFFFFFFD1
:107FC000FFFFFFFFFFFFFFFFFFFFFFFFFFFFFFFFC1
:107FD000FFFFFFFFFFFFFFFFFFFFFFFFFFFFFFFFB1
:107FE000FFFFFFFFFFFFFFFFFFFFFFFFFFFFFFFFA1
:107FF000FFFFFFFFFFFFFFFFFFFFFFFFFFFFFFFF91
:00000001FF
